:020000040800F2
:1000000080040020450100082D040008DB030008DF
:1000100029040008B1010008C10500080000000023
:100020000000000000000000000000007104000853
:10003000B5020008000000002F0400085D0500085C
:100040005F0100085F0100085F0100085F01000810
:100050005F0100085F0100085F0100085F01000800
:100060005F0100085F0100085F0100085F010008F0
:100070005F0100085F0100085F0100085F010008E0
:100080005F0100085F0100085F0100085F010008D0
:100090005F0100085F0100085F0100085F010008C0
:1000A0005F0100085F0100085F0100085F010008B0
:1000B0005F0100085F0100085F0100085F010008A0
:1000C0005F0100085F0100085F0100085F01000890
:1000D0005F0100085F0100085F0100085F01000880
:1000E0005F0100085F0100085F0100085F01000870
:1000F0005F0100085F0100085F0100085F01000860
:100100005F0100085F0100085F0100085F0100084F
:100110005F0100085F0100085F0100085F0100083F
:100120005F0100085F0100085F0100085F0100082F
:10013000DFF80CD000F018F800480047E50500088B
:10014000800400200648804706480047FEE7FEE797
:10015000FEE7FEE7FEE7FEE7FEE7FEE7FEE7FEE777
:100160006105000831010008064C074D06E0E06813
:1001700040F0010394E8070098471034AC42F6D3EE
:10018000FFF7DAFFB0060008C006000810B5034606
:1001900007E018680C68A04201D0002010BD1B1DAC
:1001A000091D1000A2F10104A2B2F2D10120F5E76D
:1001B00000BFFEE700F0805111B10349086001E083
:1001C00002494860704700000404024000000240F9
:1001D00021B1026842F00102026004E002684FF6B9
:1001E000FE731A400260704700B58BB001210846CB
:1001F00000F01EF912480090124801900020029071
:1002000020200390402004908020059080000690DC
:1002100080000790002008904FF4005009904000A3
:100220000A906946084800F027F84FF40010FFF7DD
:10023000C1FF01210448FFF7CBFF0BB000BD000058
:1002400030060008000000206C000240014600203B
:10025000002201F0805313B1054B1A6801E0054BF1
:100260001A6802EA01030BB1012000E00020704788
:10027000000402400000024010B50022026847F668
:10028000F0739A430C6A8B6823430C6923434C69CF
:1002900023438C692343CC6923434C6A23438C6AF0
:1002A00023431A430260CB6843600B6883604B684A
:1002B000C36010BD704700E0401E0028FCD17047AD
:1002C0002DE9F041024600250026002000230024ED
:1002D000002791F803C00CF00F0591F803C00CF053
:1002E000100CBCF1000F03D091F802C04CEA0505D8
:1002F00091F800C0BCF1000F31D0146800202BE051
:100300004FF0010C0CFA00F3B1F800C00CEA030640
:100310009E4220D183004FF00F0C0CFA03F7BC4330
:1003200005FA03FC4CEA040491F803C0BCF1280F61
:1003300006D14FF0010C0CFA00FCC2F814C00AE020
:1003400091F803C0BCF1480F05D14FF0010C0CFA35
:1003500000FCC2F810C0401C0828D1D31460B1F8CA
:1003600000C0BCF1FF0F34DD546800202EE000F126
:10037000080C4FF0010808FA0CF3B1F800C00CEAC1
:1003800003069E4221D183004FF00F0C0CFA03F7B5
:10039000BC4305FA03FC4CEA040491F803C0BCF129
:1003A000280F05D100F1080C08FA0CF8C2F81480E7
:1003B00091F803C0BCF1480F07D100F1080C4FF0D1
:1003C000010808FA0CF8C2F81080401C0828CED3A7
:1003D0005460BDE8F0810161704700BFFEE7000096
:1003E00008B50121102000F033F80420ADF800001A
:1003F00010208DF8030003208DF80200694609489B
:10040000FFF75EFF0820ADF8000069460548FFF7DA
:1004100057FF04210348FFF7DEFF08210148FFF7DB
:10042000DAFF08BD0010014000BFFEE770477047CB
:1004300029B1064A52690243044B5A6104E0034A57
:1004400052698243014B5A6170470000001002401C
:1004500029B1064A92690243044B9A6104E0034AB7
:1004600092698243014B9A6170470000001002407C
:10047000704710B500F002F810BD00000CB5002068
:10048000019000903348006840F4803031490860A2
:1004900000BF3048006800F4003000900198401C14
:1004A0000190009818B90198B0F5A06FF1D12948D2
:1004B000006800F4003010B10120009001E000203D
:1004C00000900098012843D12348006840F01000B4
:1004D000214908600846006820F0030008600846CB
:1004E000006840F0020008601A48406819494860F6
:1004F0000846406848600846406840F480604860AC
:100500000846406820F47C1048600846406840F483
:10051000E81048600846006840F08070086000BF3E
:100520000C48006800F000700028F9D009484068C5
:1005300020F00300074948600846406840F0020088
:10054000486000BF0348406800F00C000828F9D15B
:100550000CBD000000100240002002407047000067
:1005600010B51348006840F00100114908600846C2
:100570004068104908400E494860084600680E4926
:1005800008400B4908600846006820F48020086095
:100590000846406820F4FE0048604FF41F00886061
:1005A000FFF767FF4FF000600449086010BD0000CE
:1005B000001002400000FFF8FFFFF6FE08ED00E02B
:1005C00000BFFEE702E008C8121F08C1002AFAD1E6
:1005D00070477047002001E001C1121F002AFBD1C3
:1005E00070470000FFF7FCFE6FF07F40FFF763FEEF
:1005F000FFF7FAFD00BF4FF40010FFF727FE0028B9
:10060000F9D0202207490848FFF7C0FD04461CB96D
:1006100004200649486102E008200449486100BFFF
:10062000FEE7000000000020300600080010014036
:1006300004030201080706050C0B0A09100F0E0D32
:1006400014131211181716151C1B1A19201F1E1D22
:1006500024232221282726252C2B2A29302F2E2D12
:1006600034333231383736353C3B3A39403F3E3D02
:1006700044434241484746454C4B4A49504F4E4DF2
:1006800054535251585756555C5B5A59605F5E5DE2
:1006900064636261686766656C6B6A69706F6E6DD2
:1006A00074737271787776757C7B7A79807F7E7DC2
:1006B000C00600080000002080040000D4050008E7
:0400000508000131BD
:00000001FF
