:020000040800F2
:1000000000040020450100084D0100084F010008D0
:1000100051010008530100085501000800000000CC
:100020000000000000000000000000005701000870
:1000300059010008000000005B0100085D01000894
:100040005F0100085F0100085F0100085F01000810
:100050005F0100085F0100085F0100085F01000800
:100060005F0100085F0100085F0100085F010008F0
:100070005F0100085F0100085F0100085F010008E0
:100080005F0100085F0100085F0100085F010008D0
:100090005F0100085F0100085F0100085F010008C0
:1000A0005F0100085F0100085F0100085F010008B0
:1000B0005F0100085F0100085F0100085F010008A0
:1000C0005F0100085F0100085F0100085F01000890
:1000D0005F0100085F0100085F0100085F01000880
:1000E0005F0100085F0100085F0100085F01000870
:1000F0005F0100085F0100085F0100085F01000860
:100100005F0100085F0100085F0100085F0100084F
:100110005F0100085F0100085F0100085F0100083F
:100120005F0100085F0100085F0100085F0100082F
:10013000DFF80CD000F018F800480047AD010008C7
:10014000000400200648804706480047FEE7FEE717
:10015000FEE7FEE7FEE7FEE7FEE7FEE7FEE7FEE777
:100160008D01000831010008064C074D06E0E068EB
:1001700040F0010394E8070098471034AC42F6D3EE
:10018000FFF7DAFF3C0200084C020008704702E06B
:1001900008C8121F08C1002AFAD170477047002012
:1001A00001E001C1121F002AFBD170471D48806980
:1001B00040F010001B4988611B48006840F48050E3
:1001C000194908600846006840F4807008600846D5
:1001D000C06820F00400C86023E01348C06820F025
:1001E00008001149C860114800F022F80E48C068A4
:1001F00040F008000C49C8600C4800F019F80A48A3
:10020000C06820F004000849C860084800F010F8F1
:100210000548C06840F004000349C860034800F086
:1002200007F8DAE70010024000100140FFFF0F005E
:1002300000E0401E0028FCD1704700004C0200087E
:0C02400000000020000400009E010008E7
:0400000508000131BD
:00000001FF
