:020000040800F2
:1000000000040020450100084D0100084F010008D0
:1000100051010008530100085501000800000000CC
:100020000000000000000000000000005701000870
:1000300059010008000000005B0100085D01000894
:100040005F0100085F0100085F0100085F01000810
:100050005F0100085F0100085F0100085F01000800
:100060005F0100085F0100085F0100085F010008F0
:100070005F0100085F0100085F0100085F010008E0
:100080005F0100085F0100085F0100085F010008D0
:100090005F0100085F0100085F0100085F010008C0
:1000A0005F0100085F0100085F0100085F010008B0
:1000B0005F0100085F0100085F0100085F010008A0
:1000C0005F0100085F0100085F0100085F01000890
:1000D0005F0100085F0100085F0100085F01000880
:1000E0005F0100085F0100085F0100085F01000870
:1000F0005F0100085F0100085F0100085F01000860
:100100005F0100085F0100085F0100085F0100084F
:100110005F0100085F0100085F0100085F0100083F
:100120005F0100085F0100085F0100085F0100082F
:10013000DFF80CD000F018F800480047D50200089E
:10014000000400200648804706480047FEE7FEE717
:10015000FEE7FEE7FEE7FEE7FEE7FEE7FEE7FEE777
:10016000B302000831010008064C074D06E0E068C4
:1001700040F0010394E8070098471034AC42F6D3EE
:10018000FFF7DAFF58030008680300082DE9F04183
:10019000024600250026002000230024002791F8B5
:1001A00004C00CF00F0591F804C00CF0100CBCF169
:1001B000000F03D091F802C04CEA050591F800C089
:1001C000BCF1000F31D0146800202BE04FF0010C7F
:1001D0000CFA00F3B1F800C00CEA03069E4220D1ED
:1001E00083004FF00F0C0CFA03F7BC4305FA03FC35
:1001F0004CEA0404B1F804C0BCF1280F06D14FF05A
:10020000010C0CFA00FCC2F814C00AE0B1F804C0FA
:10021000BCF1480F05D14FF0010C0CFA00FCC2F8FC
:1002200010C0401C0828D1D31460B1F800C0BCF144
:10023000FF0F34DD546800202EE000F1080C4FF071
:10024000010808FA0CF3B1F800C00CEA03069E425C
:1002500021D183004FF00F0C0CFA03F7BC4305FAD1
:1002600003FC4CEA0404B1F804C0BCF1280F05D12A
:1002700000F1080C08FA0CF8C2F81480B1F804C0B8
:10028000BCF1480F07D100F1080C4FF0010808FA43
:100290000CF8C2F81080401C0828CED35460BDE88A
:1002A000F08142690A434261704702690A43026170
:1002B0007047704702E008C8121F08C1002AFAD12F
:1002C00070477047002001E001C1121F002AFBD1D6
:1002D000704700001CB51A48806940F010001849AA
:1002E00088610420ADF800001020ADF80400012062
:1002F0008DF8020069461348FFF748FF1FE01148D8
:10030000C06820F008000F49C8600F4800F01EF8D0
:100310000C48C06840F008000A49C8600A4800F06C
:1003200015F804210748FFF7BCFF074800F00EF856
:1003300004210448FFF7B9FF034800F007F8DEE79F
:100340000010024000100140FFFF0F0000E0401EBF
:100350000028FCD17047000068030008000000205E
:0803600000040000C4020008C3
:0400000508000131BD
:00000001FF
